:020000040000FA
:1000000000400020456F0100816F0100836F0100F7
:1000100000000000000000000000000000000000E0
:10002000000000000000000000000000856F0100DB
:100030000000000000000000876F0100896F0100D0
:100040008B6F01002D550100156D01008B6F0100B4
:100050008B6F010000000000759E01008B6F010096
:10006000A5F200008B6F01007DA001008B6F0100E5
:100070008B6F01008B6F01008B6F01008B6F010094
:100080008B6F0100016A01008B6F01008B6F010013
:100090008B6F0100E59B0100859D0100EDF30000E1
:1000A000FDF300008B6F0100000000000000000065
:1000B0000000000000000000000000000000000040
:1000C00008B5054B054803331B1A062B03D9044B0F
:1000D000002B00D0984708BD08010020080100202F
:1000E000000000000648074908B5091A8910CB0F1F
:1000F0005918491003D0044B002B00D0984708BD75
:1001000008010020080100200000000010B5074C85
:100110002378002B09D1FFF7D3FF054B002B02D02A
:10012000044800E000BF0123237010BD0801002037
:100130000000000028D8030008B5094B002B03D0AD
:100140000848094900E000BF08480368002B02D1B5
:10015000FFF7C8FF08BD064B002BF9D09847F7E71B
:100160000000000028D803000C0100200801002036
:1001700000000000144B002B00D1124B9D46402282
:1001800092029A1A924600218B460F461148124A53
:10019000121A2CF032FE0D4B002B00D098470C4B5E
:1001A000002B00D098470020002104000D000B48D0
:1001B0002CF0FCFC22F074FC200029002AF018FB33
:1001C00022F0BAF900000800004000200000000002
:1001D0000000000008010020FC0900205128020056
:1001E000F0B500270D1C85B003901E1C081C104B99
:1001F000111C0097022208F0F3FBA81C800028F0D5
:10020000A2FD039B041C03606B1E3D1C0393436013
:1002100033688360039B9D4207D20135AF00F059DC
:100220000DF0FEFFE719B860F4E7201C05B0F0BD43
:10023000FFFF000070B5041C0D1C104928F04DFC98
:100240006968201C012213F0E1FD0D4E201C311CB9
:1002500028F043FCA968201C012213F0D7FD311CB3
:10026000201C28F03AFCE968201C012213F0CEFD86
:10027000201C044928F031FC70BDC0465C490300D5
:10028000634903009CB5030070B5061C10200D1CCB
:10029000141C28F058FD034B466085600360C46061
:1002A00070BDC046FCDB02000D49F0B50B68441E72
:1002B000251C0020DF0F9E097E405E401F095A0862
:1002C0007E409B0873405340DB07134301224000EC
:1002D0001A4010436D08EDD1A042E9D80B60F0BD83
:1002E00024010020002201210E4B30B51A600E4A75
:1002F0001160191C1A68131C042000240B4A546056
:100300005568094C002DFBD0A122D200A2581B0237
:10031000013813430028F0D11A1EECD00B600123E2
:10032000636030BD2401002000D00040FCD00040BC
:10033000014B18607047C04624010020FF2310B510
:100340000324DB05CB18A343021C181CA24213D0C4
:10035000042A09D00021002A0ED11AF0ABF807496F
:10036000002809D0064907E08022022012069B18C7
:10037000A343044A03439918081C10BD64E8020013
:10038000A8E8020000008080FF23DB0510B5041CF4
:10039000C818032386B0984304330093002302A9AE
:1003A00001931022673308F01DFE02A9201C28F0DB
:1003B00094FB02A82E212CF00DFE00280FD102A8DC
:1003C00065212CF007FE002809D102A86E212CF02F
:1003D00001FE002803D1201C024928F07EFB06B054
:1003E00010BDC0467F9B030030B51D1C002385B0A7
:1003F0000C1C0093081C111C1A1C013308F0F0FAA5
:10040000002C21D02868124B0340062B06D0032372
:1004100018420DD10F4A0168914209D103A907F092
:100420004BF80023039900931A1C09F0D3FF0CE04A
:100430000340022B09D013F01DFE03239843013B18
:100440001843054BC01800E0044805B030BDC04655
:10045000070080FF8C010300000080800200808084
:1004600070B5051C86B0101C019113F003FE041C2E
:100470000390681F182800D9B0E019F031FE0D1064
:10048000161B2C37686DAFAFAFAFAF0D10161B2C1E
:100490003768898E93989D000198211C54E001983B
:1004A000211C1AF073FD01908FE00198211C1AF0B5
:1004B0003BFCF8E7201C002119F0FCFF002805D0C8
:1004C0004849494829F012FE15F08DFD01A803A9FD
:1004D00024F002F879E0201C002119F0EBFF00283D
:1004E000EED10198211C1AF02DFADCE7201C002126
:1004F00019F0E0FF0028E3D1211C01981DF048FF0E
:100500000021051C019019F0D5FF002807D0039A9F
:100510000023002A01DA80231B06019355E0002105
:10052000281C19F0CDFF431E98410124039E404230
:1005300004400021301C19F0C3FF431E9841E4B26F
:10054000844242D0281C311C1AF080F8ABE7019895
:10055000211C1DF0FDFFA6E7201C002119F0AAFFB9
:100560000028ADD101A803A923F0B6FF0322022081
:10057000019B1E49934303435B180493039B9343DE
:1005800003435B1804A9059315F014F9031C26E036
:100590000198211C19F094FF12E00198211C19F018
:1005A000A3FF0DE00198211C19F084FF08E00198D9
:1005B000211C19F08FFF03E00198211C19F09EFF08
:1005C0000B4B00280BD10B4B09E00323019A0220AF
:1005D0009A43131C054A03439B1800E00023181C90
:1005E00006B070BD66490300C82503000000808086
:1005F00064E80200A8E80200002313B5046A00932F
:100600000A05A16B024C920C125924F02CF813BD70
:1006100074DC0200F0B51C7887B07C2C06D18568AC
:100620006D5C002D02D09A2D00D0DEE00393231CD8
:100630006B3B02920091071C022B29D884687D68CD
:1006400060180378032B00D0ACE004A924F0FEF876
:100650006319984200D19EE00378032B00D0A1E0FB
:1006600005A924F0F3F8039B1B786B2B03D1049BA3
:10067000059A13430AE06C2B03D1049B059A53405F
:1006800004E06D2BE4D1059B049A13400493DFE74B
:100690006E2C04D00223221C9A43702A63D1009B43
:1006A000BE68F0187B6801930378032B7AD104A904
:1006B00024F0CCF8051C019BF3189D426BD0AB785D
:1006C000A81C6C78032B6DD105A924F0BFF8051C7C
:1006D000372C0ED1059A1F2A64DC4549049B114131
:1006E0008B425FDCC021090611418B425ADB9340EB
:1006F00009E0392C09D1059B1F2B01DD1F23059330
:10070000049B059A1341049328E02F2C03D1049BEA
:10071000059A9B18F7E7302C03D1049B059A9B1A86
:10072000F1E7312C09D10498059903F0E7F8002886
:1007300038D1059B049A5343E5E7332C32D0059911
:10074000352C05D100292DD0049824F0B9FE04E001
:10075000002927D0049824F0C3FE0490049B5A007B
:100760005340A8D51EE0752C1CD18368009A9818B8
:1007700083784478032B15D1023024F076F82F2C9F
:1007800008D0302C05D1404243000490584002D597
:1007900008E0C0430490009B381C7B60049923F060
:1007A00092FF22E000267B68009A029C9D1A013687
:1007B000E409FCD12B1C0134DB09FCD1731C1A1990
:1007C000381C0099019328F092F8071C039B311CF8
:1007D0001B78029A1A330370013023F0F0FE019B5C
:1007E000211CF8182A1C23F0EAFE07B0F0BDC04611
:1007F000FFFFFF3FF0B597B00990C02000254023D0
:100800000AAC80000F1C161C25706360A56028F0E0
:10081000A7FA2561E0606561A561E5612762E5628F
:10082000A84202D1BF48C049C0E1331E03D004230F
:10083000022E00D0033B0026BC4A9B000096201CE1
:10084000B96B9A58331C23F00EFF102028F07BFA66
:100850001021041C27F0A9FF0AADAB68002B00D1C2
:1008600081E12A78002A00D07DE1013B0C32AB60A7
:100870005343EA68AD49D318DA785D68920052585C
:1008800003921A689B681202120A0493039B069251
:100890005B7807930F23079A1A400592002D01D128
:1008A000636804933023079A1340102B02D0202B47
:1008B00040D0F4E0002D03D0002E01D10026CBE77C
:1008C000039B6A009A18059B9D4231D25388190BED
:1008D000012916D1391C403109781B0502321B0D44
:1008E000994221D10AA8211C23F022FF0028E5D13A
:1008F0003B1C40331B78062B00D04CE18C488D49C3
:1009000054E1059A6B1C934206D2049A0AA80092FD
:100910000699039A23F0A7FE039B6D005D19698871
:100920000AA8FFF769FEC9E70135CCE7012DDFD83A
:10093000012691E7002E0BD0039A6B009B5A1B0BEC
:10094000032BF3D1201C012127F097FF0023037014
:10095000039B6E009E191AE073881A0B012A29D195
:100960003A1C40321278DBB29A4220D1082A07D1D1
:10097000B96CF86C15F044FA011C201C23F069FED8
:10098000002D08D0381C24F0B0FA01350236059B42
:100990009D42E1D310E0039B5B787F2BF2D90E9B45
:1009A000201C591C07930E9123F08DFEEAE7002DC1
:1009B000BED09DE76B1CA8E700231E1C059A93423E
:1009C0000CD203995A008A185288110B012903D1BD
:1009D000D2B2072A00D901260133EFE7A368049AAF
:1009E000981800230793A2686368D318984206D228
:1009F000079B01210133079323F001FEF3E7039BDB
:100A00001B781F2B01D02E2B00D10126039B597878
:100A100040230B40181C4342434149B25B421E40F5
:100A2000002900DA01260025049B0595D0180895B9
:100A3000079B9D420FD0059A037801320592002B47
:100A400004D0089B0133089300230593012123F070
:100A5000D6FD0135ECE7002E02D1089B012B04D016
:100A6000201C059927F076FF76E0A268049B944647
:100A700063441D1C079B9E4200D11FE72B78002B6F
:100A800006D1A368201CE91A012227F071FF04E0B7
:100A9000281C012123F0B3FD051C0136EAE7002ED6
:100AA0001FD0059B022B03D10023012D45D13FE729
:100AB000012D00D13CE701232A1C1A403CD0059AA5
:100AC000032A3AD014E73A1C0899403212780905F3
:100AD000090D8A4217D1002B10D0381C24F005FADA
:100AE00001350123079A039913402B405A008A18B5
:100AF00052880892120B012AE5D006E00AA8211CB0
:100B000023F016FEECE70135CBE7049A0AA8009221
:100B100006996B1C039A23F0A6FD0AA80899FFF713
:100B20006BFD99E6EC2103008049030074DC0200B0
:100B300054240300A8490300131C079A691ED20716
:100B400005D5039A9288120B012A00D16908012960
:100B500002D1002B00D1B1E6201C0499069A039B18
:100B6000FFF758FDAAE62B78002B00D05AE63B1C75
:100B700040331E78002E00D0BAE66368002B00D107
:100B8000B6E62B69201C591C23F09DFDA3686B62FF
:100B9000EB69AB620FE0022B02D11448144905E067
:100BA0000B3B14481449012B00D9144929F09EFA33
:100BB0000023061C13930D9828F0ECF8002E0BD0A0
:100BC000301C3968BA6B002311F052FE381C24F037
:100BD0001AF9301C15F007FA381C24F014F9099A98
:100BE00013AB13CB13C2099817B0F0BD5424030004
:100BF000BA490300D4260300EE490300154A030056
:100C000010B5041C082028F09EF8024B44600360D5
:100C100010BDC04618DF0200F0B500240E1C85B0E0
:100C2000071C0393081C0D4B111C0094221C07F099
:100C3000D7FEB01C800028F086F8051C07604660CF
:100C4000B44208D0039BA700D8590DF0E9FAEF1978
:100C5000B8600134F4E7281C05B0F0BDFFFF0000C8
:100C6000034B82B001AAA0331A6002B07047C0469D
:100C7000A4080020034B82B0A0331B6801A8181AF7
:100C800002B07047A4080020014BA43318607047DD
:100C9000A408002008B50349034829F020FA15F0FC
:100CA000A2F9C04626090000A8210300064B07B59B
:100CB0001A1CA433A03212681B6801A9521A9A4266
:100CC00001D3FFF7E7FF07BDA408002038B5051CD6
:100CD0000C200C1C28F037F8024B45600360846040
:100CE00038BDC04690DF020008B503480349044AF6
:100CF00027F0BFFF034808BD68150300EE8103001D
:100D0000244A0300F0F6020008B503480349044AE8
:100D100027F0AFFF034808BD68150300EE8103000C
:100D2000684B0300F0F6020010B50024064B1C705F
:100D300010F0E0FD0CF09EFB09F026F801F044FEF7
:100D4000024B1C7010BDC0464F080020F207002067
:100D500008B5064B1A680823D16C0B43D36428F0FE
:100D600085FD11F0A9FE01F087FFFCE704070020D4
:100D700008B50C4818F062FB27F09CFE05F036F829
:100D800012F032FC08F096FD074829F055FC0748A0
:100D90000EF03CFA0EF018FA08F09AFDFFF7A2FAEE
:100DA00008BDC046E4030020EC020020290D00002D
:100DB000F0B5051C89B002AF0E1CBA603B60FFF7AE
:100DC00075FFAB687B611423F81827F011F8142322
:100DD0007860F81827F00CF8032358437B68C01894
:100DE0008300FB602C2B0AD86B46F8682A30C008B9
:100DF000C0001B1A9D46002302ACFB6005E0F868AA
:100E00001C3027F0ADFF041EEED0AA687B69201CC1
:100E10009B1A63607B68321CA3613B68291C0093AA
:100E2000BB6809F0D7FF184E201C7368002163616E
:100E30006B68736013F08AFA6369B86073600028A6
:100E400002D0022803D00BE0E3681D6809E07B684C
:100E500005339B00E3185D68FB68002B0CD005E0B0
:100E60000A4DFB68002B0AD00023BB60201C27F032
:100E700091FFBB68002B02D0281C15F0B4F8281C89
:100E8000BD4607B0F0BDC046A4080020F0F6020041
:100E90000122031C30B5134085B04510002B4ED104
:100EA00028491D1C88424AD0274B984247D0274BDF
:100EB000151C984243D00323041C034006D1244A46
:100EC0000168914202D123F012FF0EE0214A251C55
:100ED0002240062A05D0002B09D11F4B22689A42D6
:100EE00005D1201C01A906F0E7FA051C27E0201C0B
:100EF00012F072FF194B984207D1FF23DB05E0186F
:100F0000032398431AF0C0F9EFE7154B984205D137
:100F1000201C694601AA29F067FA0FE0114B98429C
:100F200005D1201C694601AA29F0B8F806E0201C6A
:100F300001A9022229F003FA002800D0019D281CF3
:100F400005B030BDF0F60200A8E8020064E8020037
:100F5000802E0300070080FF8C01030038DC0200B4
:100F6000042E0300E41F0300F0B585B0051C0E1C21
:100F7000029203931F4F002804D043680193002975
:100F800003D125E0002903D00190019B581C01E00A
:100F9000081C01910430800027F0D5FE164B041C7C
:100FA00003607B684360029B8360039BC360002DEA
:100FB00007D0291C201C019B08319A0010302BF00F
:100FC000FFFE002E13D0019B04339B001E510EE048
:100FD000019B181D800027F0B6FE074B041C036020
:100FE0007B684360029B8360039BC360E1E7201C36
:100FF00005B0F0BDA408002090E0020070B5061C0A
:1010000010200D1C141C27F09EFE034B46608560CB
:101010000360C46070BDC04618E00200C379024896
:10102000002B00D10148704764E80200A8E80200E4
:1010300008B504F093FE014808BDC046F0F6020072
:1010400008B5086804F08AFE004808BDF0F6020002
:1010500073B50D1C022823D10126486801A906F0AA
:101060002BFA7642341C019BC31898421BD001789E
:10107000722901D0772905D1621C0ED172394C42F8
:101080004C4108E0622901D0742906D1721C04D1B8
:1010900074394E424E410130E7E70E480E4913E0E5
:1010A00001267642341C01A9286806F005FA73422D
:1010B000734162426241DBB2D2B2019904F0A2FFF5
:1010C000002805D10548064929F010F814F08BFFD7
:1010D00076BDC0466C210300404C03001C23030076
:1010E0004D4C0300014B58687047C046A4080020CF
:1010F000014B18687047C046A4080020F0B5194E8F
:1011000087B03368051C00200C1C019327F04CF9B4
:1011100030600090206827F0BBFD019B071C336006
:10112000114E022D03D0A06812F056FE061C211CA1
:1011300063680831A81E039314F03CFB009B0490E5
:101140000593301C03AB032100220CF06FFF074B0B
:10115000041C9F4203D0381C211C23F001FC201CDE
:1011600007B0F0BDA4080020E0FF0200F0F6020086
:10117000F8B50326051C071C3540022D15D10E4B72
:101180000340062B11D0FF23DB05C418B443201CF9
:10119000002119F095F900280BD080231B06E018D8
:1011A000B043064B2843C01804E0381C00F07EFB17
:1011B00000E0381CF8BDC046070080FF00008080BA
:1011C00010B50DF02DF8041C201C0DF077F8002848
:1011D00005D013F02BF80028F6D1024800E00248B1
:1011E00010BDC046A8E8020064E8020010B50DF08A
:1011F00017F8041C201C0DF061F8002805D013F02E
:1012000015F80028F6D0024800E0024810BDC0469C
:1012100064E80200A8E8020007B5044B01906946A3
:1012200002200022009306F0BBFE0EBD0604000063
:1012300008B512F057FE034B002800D1024B181CD2
:1012400008BDC04664E80200A8E8020037B512F005
:10125000ADFE01AB7F2802D8187001213CE0214986
:10126000820988420AD8402149420A431A703F2223
:101270001040BF3A1043587042312DE01A49040B18
:1012800088420ED8202149420C431C7080245F31D3
:101290000A4064420840224320435A7098703C3907
:1012A0001AE01249884211D81025810C6D42294359
:1012B00019703F21703D0C400A4008402C432A43DE
:1012C00028435C709A70D8703B3905E0084909489A
:1012D00028F00CFF14F087FE181C012205F034FCE6
:1012E0003EBDC046FF070000FFFF0000FFFF1000EB
:1012F0005C4C03006C21030008B5021C02490A2063
:101300000DF01CF808BDC046BE04000008B5021C64
:1013100002490A200DF012F808BDC0463E05000043
:10132000F0B585B002900192101C0C1C00223249CD
:10133000039301F08BFF0090002801D043680093D5
:10134000029B012B03D000252E1C01953CE0206858
:1013500000240CF065FF271C029002980CF0AEFFF1
:10136000051E17D0009B2E1C002B04D0181C291C16
:1013700027F095FC061C002C09D00398311C3A1C60
:101380000CF0DCFF1D4B984201D0251C3E1C2C1C90
:10139000371CE2E7221E2BD10198194901F056FFB4
:1013A000002801D0426823E01649174828F09EFE25
:1013B00014F019FE009B002B0AD12768002E0DD1D6
:1013C0002668019701350434029B9D42F2D10EE05C
:1013D0000098216827F063FC071CEFE70398391C8D
:1013E000019A0CF0ABFF054B9842EBD1E8E7321CB9
:1013F000101C05B0F0BDC046D606000064E802002F
:101400001E0500007D4C03006C21030037B501A9C7
:10141000051C06F051F81E4B041C2B40062B05D072
:10142000AB072AD12A681B4B9A4226D1201C01996E
:1014300027F039F80190012822D1207843B2002BFF
:1014400004DB012320784000184320E07F2301348F
:1014500018403F3B184202D098435B10FAE72278CD
:101460003F23111C9943802904D18001134001348A
:101470001843F4E723F0FEFB09E0019B012BE0D0C9
:101480000549019A054811F085F914F0ACFD3EBDFF
:10149000070080FF8C010300964C03005C260300CC
:1014A000F0B587B0141C02900391101C2349002250
:1014B00001F0CCFE2249051C0022201C01F0C6FED2
:1014C0000123041C049305931E4F002D07D0686868
:1014D0001D4B984203D004A905F0EEFF071C1B4DDD
:1014E000002C07D06068184B984203D005A905F07E
:1014F000E3FF051C0024029B154E9C4212D0002CD9
:1015000007D00023301C00930193391C049A0CF07F
:10151000A9F9039AA300D158301C002212F076FCDE
:101520000134E8E70023301C00930193291C059A3D
:101530000CF098F9044807B0F0BDC046EE05000075
:10154000F60500001FB00300F0F60200D599030075
:10155000681503007FB50D4DA84214D0041C0C4E35
:101560000122301C211C12F051FC0A49301C27F0CA
:10157000B4FA04230293084B0394DB690748032160
:1015800002AA01939847281C04B070BDF0F602002F
:1015900068150300D599030050180300F8E1020014
:1015A00010B5041C86B002A86A4610210BF0B6FDE7
:1015B0006846211C012212F029FC02A9024805F00C
:1015C0008DFA06B010BDC0468C01030070B50C68E2
:1015D000031C201CE2074AD4A20703D1244A256831
:1015E000954244D0012B1FD9486812F0DFFC061C3D
:1015F000201C12F03FFD051C301C19F065FE011C7B
:101600001C481CF0A5FF041C211C281C19F08CFB95
:101610001CF050FC211C19F095F903239843013B61
:101620001843154BC01822E0201C12F023FD061CA5
:101630001CF040FC051C19F027FE291C041C301C62
:1016400019F0A4FCFC218905051C18F033FF0028C3
:1016500001D0013406E0BF21281C090618F02AFF3A
:10166000002801D001239C43201C23F003FB70BD04
:10167000802E0300000020410000808013B5041C70
:10168000081C05F083FA6A46011C201C0CF04CFD76
:10169000009B0248002B00D1014816BD64E80200FF
:1016A000A8E8020037B50024022800D98C684868F1
:1016B0000D6805F06BFA094B011C002C00D0084B9B
:1016C000281C6A4698470098002805D001990029EF
:1016D00003D0FFF7FBFA00E0201C3EBD89E10000CB
:1016E00029E1000038B5051C081C141C05F04EFA51
:1016F000221C011C281C0CF06FFD014838BDC0469F
:10170000F0F6020008B50CF0B3FD002804D1034840
:1017100028F0DFFC14F067FC08BDC0461824030065
:1017200030B50B1C85B0141C012805D90A490B489B
:1017300028F0DCFC14F057FC09480121C268019232
:10174000019D0022A84703A90390221C012010F04C
:1017500069FD039805B030BDD04C03005C26030042
:10176000E41F0300F8B50E1C002803D12A4B041C0B
:101770001D6823E0086883070AD10368274A93425B
:1017800003D128F051F8051C0EE0254A934201D000
:1017900012F022FB856B002D06D02A68214BD31A4C
:1017A000594259414B421D40306812F015FB1E4B07
:1017B000C26800249A4201D1346804340020011C1C
:1017C00028F054FC0027061CBD4209D10025AC427C
:1017D00016D11FE0EA68FB009958002904D10137AF
:1017E000AB689F42F6D3F1E70429F8D0301C10F023
:1017F000B5FCF4E7A268EB009958002904D1013543
:1018000063689D42F6D305E00429F8D0301C10F03F
:10181000A5FCF4E7301CF8BDA40800205018030014
:10182000E0FF02008C03030081B9000010B5102016
:1018300027F089FA041C034B08C023F070FF201C1A
:1018400010BDC046802E030038B5052827D80D1CD2
:1018500018F046FC05250D03141C081C20E0081D8B
:1018600024F089F8031E0F481AD00F4818E0081D0D
:1018700024F0A0FB01214000084311E0FFF7D6FF50
:10188000291D041C043024F0ACF806E0FFF7CEFF5D
:10189000291D041C043024F0B4F8201C00E00020B2
:1018A00038BDC04664E80200A8E8020038B5051C4F
:1018B00083070CD1104B02689A4208D1FFF7B6FF9C
:1018C000041C291D043024F081F8201C12E0281C7F
:1018D00012F06CFBC0231B06984205D1802000212A
:1018E000C00523F0B8F905E0C317C018584001231C
:1018F0004000184338BDC046802E030038B5051C93
:101900001CF04AFA012802D10F48104903E00028D0
:1019100005D10F480F4910F03DFF14F064FB281C5F
:1019200028F081FD002806D1281C19F0ADFC012407
:101930004000204307E0FFF779FF041C291C043016
:1019400023F06CFF201C38BD98260300FB4C0300DD
:101950006C210300144D030007B5C30701D54010E7
:101960000DE0043001A902F033FA002801D00198FB
:1019700005E00349034828F0B9FB14F034FB0EBD21
:101980002D4D030098260300F0B58DB00190012085
:1019900008400D1C171C041E07D04B1003A802A9F9
:1019A000022223F0FBFE03AE08E003230B4065D1C7
:1019B0009A4A0968914200D025E12E1DFB0707D500
:1019C0007B1003A802A9022223F0E8FE03AD1AE06F
:1019D00003231F4205D1914A3968914201D13D1D2F
:1019E00011E03B40022B00D011E18D4B3B40062B18
:1019F00000D10CE1301C24F030FB3A1C011C019892
:101A0000FEF72EFD08E1019B092B01D0162B16D104
:101A1000281C23F0B0FF00283DD1301C24F01DFB12
:101A2000041C281C24F019FB011C201C18F08AFF40
:101A30000323022498437B4B0443E018ECE0019B12
:101A4000182B00D9BAE0FFF7F1FE041C019818F03A
:101A500047FB6A706476760D10171DDC478E946A1A
:101A6000706476760D10171DDC478E00201D311C2A
:101A70004FE0201D311C2A1C24F095F8201CCBE0DF
:101A8000201D311C2A1C24F0CFF9F7E7281C23F075
:101A900072FF002802D06448644957E006A8271D59
:101AA00023F03DFE321C2B1C381C06A902F03AF82C
:101AB0002A7833785340DB070ED506A823F05BFF66
:101AC000002809D1012109A8494223F05DFE381CF4
:101AD000391C09AA24F02CF806A823F02CFECDE727
:101AE000281C23F048FF0028D5D109A8271D23F082
:101AF00016FE321C2B1C09A8391C02F013F809A889
:101B000023F019FE2A7833785340DB07B6D5381C0A
:101B1000391C2A1C24F00CF8B0E7201D311C2A1CAB
:101B200024F089F8AAE7201D311C2A1C24F003F9AF
:101B3000A4E7201D311C2A1C01F080FF9EE7381C01
:101B4000FFF70AFF021E05DA39483A4928F0CEFAB3
:101B500014F049FA019B201D311C032B01D0102BDE
:101B600002D101F0FFFE89E723F082FF86E7201D06
:101B7000311C2A1C24F0DBF980E7281C23F0FBFE33
:101B8000002888D1FFF752FE271D0190321C2B1C24
:101B90000430391C01F0C6FF2A7833785340DB0744
:101BA00004D5381C391C2A1C23F0C2FF019B09A94B
:101BB000022009930A9413F0FDFD2DE0301C291C2E
:101BC00023F0DEFE019A031C193A0020042A23D8D0
:101BD000101C18F085FA0307130B0F001648002B92
:101BE0001ADA0EE01448002B0BDC15E01248002B2B
:101BF00012DC06E01048002B03DA0DE00E48002B43
:101C00000AD10E4808E0181C06E0002004E0019804
:101C1000291C3A1C14F02EF80DB0F0BD802E0300E4
:101C2000070080FF00008080C8250300664903008C
:101C30006C2103005A4D0300A8E8020064E802008A
:101C4000F7B5CC1CA400071C201C0E1C019227F029
:101C50007AF8221C051C054B4760866003600C3A2D
:101C600001990C302BF0ACF8281CFEBD48E60200B0
:101C7000F0B5071C443787B0041C381C01910026BE
:101C800026F0C8FD2069431C18D00A2804D1201C66
:101C900023F085F80126F5E70AF0B6FD002823D1E8
:101CA0002369232B08D1201C23F079F823695A1CBF
:101CB000E8D00A2BF7D1E5E75C2B07D0E369256A6A
:101CC000019AA363E563002A12D117E0201C23F0D8
:101CD00066F823690A2B07D0E369A363236AE363E9
:101CE000042340342370F9E2201C23F058F8C9E79C
:101CF000012B03D10622012D00D07AE1636A002B6B
:101D000004DA221C0721403211702FE0002B06D08C
:101D1000221C062140321170013B6362B8E1002EA3
:101D200039D0A36A002B36D1211C052240310A701C
:101D30006362226BBA4B606BD3185B001B5A013D88
:101D40009D4200D1A4E113D9E16A8A4207D3083148
:101D5000490027F00EF8E36A60630833E362236BFF
:101D60005A1C2263626B5B009D52636A0133D4E7A5
:101D7000236BAB4A9A185200125A954205D2013B86
:101D80002363636A013B6362F2E7954200D17FE11E
:101D900002230B707CE12069431C1BD1A04A236BFA
:101DA000616B9B185B005A5A231C4033002A00D1F8
:101DB00021E105221A7000236362994A236B9A1865
:101DC0005200525A002A00D162E1013B2363636A48
:101DD000013BF1E7272800D17EE1222800D17BE1F9
:101DE000752804D01023021C9A43622A04D1636927
:101DF000272B11D0222B0FD0722803D16369622BBD
:101E00002ED104E062282BD16369722B28D1A369FB
:101E1000272B01D0222B23D1752803D1201C22F09F
:101E2000BEFF59E162280ED1201C22F0B8FF00232A
:101E300001932369722B00D048E1201C22F0AFFFF0
:101E40000123019342E100230193722800D045E170
:101E5000201C22F0A4FF2369622BEED001233CE179
:101E60000AF0DEFC2169002803D15F2901D07F2917
:101E70001ED9231C082240331A70C9B2381C26F020
:101E800021FD201C22F08BFF2069431C00D1FFE0C4
:101E90000AF0C6FC002801D0217CEFE720695F280A
:101EA000FAD07F28F8D80AF0C7FC0028F4D1EFE078
:101EB000081C0AF0C1FC002808D0251C2169403507
:101EC0002E290CD10A2300262B7035E023692E2BF6
:101ED00052D160690AF0B0FC0028EED14CE0092331
:101EE00000262B70302927D1626917331343012252
:101EF000161C622B20D06F2B1ED0783B5E425E41B9
:101F00001AE02069431C00D1C2E0002E1BD120231F
:101F1000021C9A43131E452B15D13B3B2B706521A8
:101F2000381C0BF007F9201C22F039FF216902222E
:101F30000B1C2B3B9343E4D1381C0BF0FBF8201C0B
:101F400022F02DFFDDE70AF06BFC002803D02169A9
:101F50002E2909D10DE020690AF06EFC0028F6D187
:101F600023692E2BF3D093E020230A1C9A434A2A9C
:101F7000E2D10A232B70DFE721692E291FD1261C0D
:101F8000381C0BF0D7F8201C22F009FF23694036DB
:101F90002E2B00D093E165692E2D00D08FE1381CE7
:101FA000291C0BF0C7F8291C381C0BF0C3F8201CA7
:101FB00022F0F5FE201C22F0F2FE0D2380E1002627
:101FC000184D2F78002F0ED0B9420CD03B1CFD20AD
:101FD000633B6A1C034202D0452F01D1013E151C10
:101FE00001360135EDE7201C22F0D9FE002F04D187
:101FF0000122231C40331A704AE0371C01352B782C
:10200000652B11D16B78226901379A4205D1201CCA
:10201000013522F0C4FE3E1C06E00235EFE7C04663
:10202000FFFFFF7F9A4D03002B78452B0AD16B7879
:1020300022699A4204D1201C22F0B1FE3E1C0EE01F
:1020400001220EE0632B0AD16B78226901379A4294
:1020500005D1201C22F0A3FE02353E1CCFE7A04B89
:102060009A5D231C40331A70231C40331B780422D2
:10207000191C9143422901D0442B02D1A36A013398
:1020800005E0432901D0452B02D1A36A013BA3629D
:10209000211C40310B78082B00D01FE10023E56C98
:1020A000A66C904A9800805800228418B24205D04D
:1020B000875CAC5CA74205D10132F6E72278002AA2
:1020C00000D1FFE00133222BEBD107E1231C0C22CE
:1020D00040331A70012306E000230193231C0B22D6
:1020E00040331A7000232722049323690392222B82
:1020F00000D10393201C22F052FE0123039A059382
:10210000236993420AD16369934207D1201C22F0CC
:1021100046FE201C22F043FE03230593002623697C
:102120000293013300D1B0E0059B012B03D1029B48
:102130000A2B00D1A9E0059B9E4200D3ACE0029B94
:10214000039A934205D1381C111C01360AF0F2FFA4
:1021500097E0029B5C2B00D08DE0201C22F01FFE3C
:10216000019B2569002B02D0381C02996BE0622D7F
:1021700000D1A2E012D84E2D4BD007D8222D66D028
:10218000272D64D000260A2D7BD045E05C2D5ED043
:10219000612D00D18FE0552D3ED11BE0742D11D063
:1021A00007D86E2D10D0722D12D0662D34D10C258B
:1021B00050E0762D0AD00DD30226782D16D06B1C58
:1021C0005ED029E0092545E00A2543E00B2541E0E2
:1021D0000D253FE0049B002B04D0381C5C210AF045
:1021E000A9FF37E00426752D00D0B6190025013E61
:1021F0002BD3201C22F0D3FD2369181C02930AF074
:1022000027FB00284DD0029826F071F92D014519C1
:10221000EDE735480CF0B2FD2B1C303B072B10D8F6
:102220001D1C03266369303B072B0ED8013E002E90
:102230000BD0201C22F0B3FD2369ED00303B5D196B
:10224000F0E7381C5C210AF075FF6B1C18D0274B97
:102250009D420BD8049B002B04D1381C291C0AF08A
:1022600069FF0DE0FF2D01D8E9B206E0231C012231
:1022700040331A7004E06B46197A381C26F022FBB2
:102280000026201C22F08BFD49E7059B9E4203D2CD
:10229000231C032240331A70381C311C26F05AFBD1
:1022A000F6E6231C012240331A70049B051C002B08
:1022B000DAD11D1CD1E70725CCE70825CAE74A2358
:1022C0003370E5E6212B07D1094BA8331A68102398
:1022D000002A02D0023B00E00E330B7007B0F0BDC5
:1022E0006F4D030084E60200DC4D0300FFFF100089
:1022F000A4080020034B04481B78002B00D103489E
:102300007047C04600D4020064E80200A8E802005A
:1023100008B5DA2026F017FD00230370024B8C333A
:102320001860024808BDC046A4080020F0F602006C
:10233000F0B5071C0E1C151C094C87B0201C01931E
:1023400026F099FD02AB1F70019B201C02A91022F0
:102350000396049505930EF0D7FA07B0F0BDC0467A
:1023600000D40200F0B57C4B99B08C331A6801920E
:10237000002A01D10020ECE000221A60019B1B78AA
:102380009342F7D00D25754F0D263B1C761B33412C
:102390000124234215D02B1C0D330293019BE9002D
:1023A000581A6A3159186A3022F0D5FDBB235B00F8
:1023B000984206DC231CB3401E1C029B9C40344305
:1023C000A743013D002DDFD1002303930A23099386
:1023D00003981AF0F5FD099B0E900F91013B0993AC
:1023E0000198391C14AA002B00D191E0012622F09B
:1023F00081FD019B7642D2330793019B0233069302
:10240000FA23DB0073439BB2109309235B427343AF
:1024100011330B93092373431193069B0C93079B72
:10242000089301235B420293FA23029ADB00534391
:102430009BB21393032301245343119A64429B18C4
:1024400012930C9B05930B9B0A93089B0493129B7E
:102450000D331B190D933B1C0D9A1341DB0728D537
:1024600014AB109A1B8816ADD3182B8014AB5B8865
:10247000139A291CD3186B80FA23DB00634314AA38
:10248000928805989B1814AAAB8022F091FD0399BD
:1024900018F016F8002851D1291C14AA049822F02B
:1024A00087FD8022039B1206991818F01DF800285A
:1024B00044D1049B0134083B04930A9B013B0A93DB
:1024C000059B08330593022CC1D1029B0133029373
:1024D000089B183B08930B9B033B0B930C9B1833F7
:1024E0000C93029B022B9FD1079B0136483B07931D
:1024F000069B48330693022E00D081E70E980F9971
:10250000174A184B18F070FF1AF0AEFD03905FE702
:1025100022F0F0FC041C14AB0021595E14AB022223
:102520009A5E14AB04201B5E090112011B010120FD
:10253000FFF7FEFE201C22F09DFB0AE001231A1C7F
:102540000A998A400D9997433A1C8B409A43171C6D
:10255000AFE719B0F0BDC046A4080020FFDFFF07B9
:102560009A9999999999B93FF0B5574C8BB00390C6
:10257000A37F002B05D15549554827F0B7FD13F02F
:1025800032FD0398FFF7C4FE201C5249002226F0BA
:1025900067FA0AF017FF00280BD04F480FF090F9A8
:1025A000002804D14D480FF08BF90028F1D00BF032
:1025B000A1F8202027F098FC0023071C002207A97F
:1025C0005A5401330C2BF9D10224251C019202929A
:1025D000434804A905AA06AB27F0CEFD211C2A1CFE
:1025E0000023381C27F0ABF9049B3E4A0024934299
:1025F0000CDB191C0134C83108DBC8210334890005
:102600008B4203DC013CC82B00DC013C059B002510
:1026100093420CDB1A1C0135C83208DBC822033593
:102620009200934203DC013DC82B00DC013D019B7D
:102630005B0705D4381C211C2A1C092327F07FF9CD
:102640000023294E0093009A07ABD25C002A03D0E6
:1026500031787278381C0EE03278A2420ED172784E
:10266000AA420BD101220099381CCA54029B211C9A
:102670009B182A1C0293092327F061F9009B02365C
:10268000013300930C2BDED10F4E391C301C26F089
:1026900089F9642003F01CFF019B01330193029B25
:1026A0000B2B95DD1149301C26F07CF9FA208000B7
:1026B00003F00EFF0398FFF755FE041C0BF01AF809
:1026C000201C0BB0F0BDC0461C000020734E030060
:1026D000A82103009F4E0300F41A03003C1B0300D3
:1026E000A8280300E0FCFFFF5B4E030090100300EE
:1026F000002008B5011C021C031CFFF719FE01484D
:1027000008BDC046F0F6020038B50021032013F0E2
:1027100051F8084D041C686822F0ACFAA060A86863
:1027200022F0A8FAE060E86822F0A4FA2061201CF8
:1027300038BDC04600D4020070B548680C1C11F0CA
:1027400035FC061CA06811F031FC051CE06811F096
:102750002DFC311C031C2A1C0120FFF7E9FD014858
:1027600070BDC046F0F60200F8B50B4E3378002B72
:1027700010D10A4D2C78E4B2002C0BD1012700684F
:102780002F7003685B689847054A2C701368377090
:10279000DB191360F8BDC046F2070020F3070020E4
:1027A0002801002010B5041C0430FFF7DDFF0021D4
:1027B000606828F01DFC034B5B68C01A22F05AFACF
:1027C00010BDC04600D4020010B5041C0430FFF751
:1027D000CBFF0021606828F018FC034B9B68C01AEF
:1027E00022F048FA10BDC04600D4020010B5041C07
:1027F0000430FFF7B9FF0021606828F013FC034B99
:10280000DB68C01A22F036FA10BDC04600D40200C0
:1028100070B50021051C032012F0CCFF041C281DFC
:10282000FFF7A2FF6868002128F0E2FB0C4E7368F6
:10283000C01A22F01FFAA0606868002128F0E5FBAA
:10284000B368C01A22F016FAE0606868002128F028
:10285000E9FBF368C01A22F00DFA2061201C70BD5C
:1028600000D40200F0B5534B8DB01B78041C002B34
:1028700001D1FFF779FE201DFFF776FF4E4D281C92
:1028800016F07EF96068002128F0B2FB494E0890EE
:10289000736860680021099328F0B7FBB3680021D2
:1028A0000A9060680B9328F0BDFBF368C01A18F01B
:1028B0000BFD041C281C29F0F6FB061C281C29F023
:1028C000E9FB051C301C1AF07BFB061C0F1C1BF0DF
:1028D00019F800900191301C391C1AF0C1FF0290C8
:1028E0000391281C1AF06CFB061C0F1C1BF00AF845
:1028F00004900591301C391C1AF0B2FF0690079124
:10290000009801991AF0B0FB011C201C18F00CFA79
:10291000099A089B051C981A18F0D6FC061C029808
:1029200003991AF0A1FB011C301C18F0FDF9011CE1
:10293000281C17F08BFE80231B06C0181AF040FBE2
:102940000B9A0A9B061C981A0F1C18F0BDFC051C5C
:10295000069807991AF088FB011C281C18F0E4F966
:10296000051C049805991AF07FFB011C201C18F027
:10297000DBF9011C281C17F069FE80231B06C01818
:102980001AF01EFB021C0B1C301C391C1BF084FBB4
:1029900000220A4B19F08EFC094A0A4B19F04CF838
:1029A0001AF09CFA002801DA6930FF3022F062F94F
:1029B0000DB0F0BD00D40200BC04002000807640C1
:1029C000EA2E4454FB211940F0B54E4B89B08C33AC
:1029D0001B680293002B00D192E04B480430FFF7B4
:1029E000C3FE4A4C0021201C28F002FB00210311E9
:1029F000201C039328F009FB00210311201C0193E4
:102A000028F010FB03110493029B1A78039B5B428E
:102A1000002A05D00321019A49429B1A05936BE0D5
:102A2000019A03209B1A9C464042011C65460939C5
:102A30000124032664420A19029FD200BA186B4689
:102A4000171C9B896A373B806B469B8870327B8062
:102A50006B461B8A013EBB80049F6743EF191780BA
:102A60000134002EE7D1019B0331ED188142DFD103
:102A7000039B0931081C9C441829D6D10123029AD2
:102A800013703DE0012403266442049D021965434E
:102A90007B190693029BD2009A18131C703307937C
:102AA00000255B5F9C46069B634515DD6A239C46BB
:102AB0006D4694446346AD891D806C239C466D46EB
:102AC00094446346AD886E321D806B461B8A13802A
:102AD0006A46079B128B1A80013E0134002ED4D126
:102AE000019B0330FF188842CCD1059A039B093122
:102AF000D3180593182903D0081C059F0938C1E78E
:102B000009B0F0BDA40800206CE70200F804002022
:102B100008B50B790349002B00D1034925F0DDFFEF
:102B200008BDC04663BC03005BBC030037B51D1C79
:102B30000023081C00930C1C111C1A1C013305F007
:102B40004FFF064B002C06D0286811F06FFB044B9A
:102B5000002800D1014B181C3EBDC046A8E8020069
:102B600064E8020010B588B0694601AA041C0FF0A1
:102B7000B7FE009B022B2AD904A8322102AA0AF030
:102B8000CDFA019B13495A6802A826F072F8201C5E
:102B900011F022F9104BC2689A4210D1236802A8A2
:102BA0005A680E4926F065F8E368002B07D05A688A
:102BB000002A04D002A89968002211F027F904A87D
:102BC00025F06DFE03F07AFC04A825F018FE08B08D
:102BD00010BDC046AD4E03007D260100B64E030079
:102BE00070B5051C90B0002803D11F4820F0EEFC02
:102BF00038E004A813F0DCF9041E19D12E6801A8EE
:102C0000291C0122FDF7F6FD221C231C311C01A802
:102C100002F0E2FE041C032003F0D4FB201C26F08B
:102C200037F80120404203F0CDFB13F0D7F919E04B
:102C30000120404203F0C6FB05990C4811F00AF947
:102C4000059811F0C9F80A49041C09F059F8002840
:102C500008D1201C074909F053F8002802D1059833
:102C6000FFF780FF10B070BDBA4E03006815030077
:102C70008C2203002421030037B5294B01AA1A60D6
:102C8000FDF7EEFFE120C000FDF7FEFF25482649D5
:102C90000FF084FF0BF0B4F803F072FB05F048FC72
:102CA000FEF766F80023214C6367214B1A781D1C40
:102CB000012A1FD1F8239B021A784D2A07D15A788E
:102CC000502A04D159881B4822F0DCF912E0002276
:102CD00019480721131C03F095F9002802D022F0AF
:102CE000DCF907E0A6201549012240000BF07EFF29
:102CF00025F0F6FF2B78002B0FD10CF09FF8002861
:102D0000F8D00F4824F0D2FB00230E4A9034136011
:102D10005360236025F0B8FF37BD0CF0EBF8EEE709
:102D20002C0100200012002000380020A408002000
:102D3000DC00002004E00300E74E0300402E030007
:102D4000EF4E03001009002007B50FF0B7FF054B49
:102D500001A81968091A89080FF06AFF0FF0C2FF6D
:102D600007BDC0462C01002030B585B003AB051C63
:102D7000141C081C02AA01A921F0A6FB019A1649FD
:102D800000238A4200D0531002984210884200D19A
:102D90002A1C002B04DA5B19D843C017034002E059
:102DA000AB4200D92B1C002A01DA521902E0AA42D8
:102DB00000D92A1C23609A4200DA1A1C039B626025
:102DC0008B4205D0032B03D05B10A360002001E0F1
:102DD0000120A06005B030BDF0F60200F0B587B06C
:102DE000061C151C0C9F1B2803D1BA4212D00020D0
:102DF0003FE0192808D01C280CD13D1C171C0A1CC8
:102E00001D26191C131C05E03D1C171C0A1C1A2644
:102E1000191C131C0397AF4200D903951C1C0023F7
:102E200002910193019B039A93421BD0029B05944C
:102E3000049301CB02CC029311F066F8002802D073
:102E4000019B0133EDE71B2ED1D0049B301C196888
:102E5000059B1A680BF072FA074BC01A434258419F
:102E6000C0B206E0BD4201D002D2C0E71A2EBED0E9
:102E7000012007B0F0BDC04664E80200F0B51E1C9A
:102E800085B0039018680D1C171C10F0A5FF73681F
:102E9000019002930024022F18D9291CB268012343
:102EA00011F05CF9041C032F10D0291C0198F26862
:102EB000012311F053F9051C08E0039AA300D05830
:102EC000029911F021F8002808D10134AC42F4D362
:102ED0000549064827F00AF913F085F80120640037
:102EE000204305B0F0BDC046FD4E03006C21030039
:102EF00013B5041CA0680BF0E1F9019000280ED076
:102F00006368074A934205D0181C0121002201ABD7
:102F10000BF08CF811F08AF90028EBD0019816BD5F
:102F2000F0F602003E2803D0402809D03C280ED1FC
:102F30004239C9B22F290AD8084B585C012308E04E
:102F4000712904D8064B585C064B5B5601E00123FF
:102F50000020002A00D013607047C046F84F0300DD
:102F6000144F0300864F030008B5512836D00FD800
:102F7000492827D006D842281CD048281FD000282E
:102F80004BD117E04F2840D042D84C281AD044E00B
:102F9000682811D007D864282AD0662825D062284E
:102FA0003BD188563AE06C2832D071280FD069287E
:102FB00033D12DE0885C31E05200505E2EE05200AB
:102FC000505A2BE09200505821F06FFE29E0D200B9
:102FD0008A181068516821F03EFE22E0D2008A185B
:102FE0001068516821F052FE1BE09200505805E035
:102FF000D2008A18106851681AF036F803239843F3
:10300000013B1843074BC0180BE09200505808E0F2
:103010009200505821F02EFE03E0002001234000D2
:10302000184308BD00008080F7B5161C156801AA7A
:10303000041C0F1CFFF776FF402C05D1019B043CBC
:103040005A1EAD185B421D402B183360221C5A26B5
:103050003E3ABE42B6415442624176422B1CD2B245
:10306000311C22F0CCF8041C0D1C4F2F3ED0532FE6
:1030700008D1201C29F0C6FF0022011C201C03F0EF
:1030800063FD33E0662F06D1032302209C43184BD7
:103090000443E0182AE0642F09D1201C19F0E4FF52
:1030A000032302249843124B2043C0181EE0002E35
:1030B00010D080220023D20512196B41201C002B56
:1030C00004D1002A02DB21F0D5FD0FE0291C21F0FC
:1030D000C2FD0BE0201C002905D1064B9C4202D802
:1030E00021F0E3FD02E0291C21F0D0FDFEBDC04629
:1030F00000008080FFFFFF3FF0B587B0141C03AADB
:10310000071C0E1C01931D68FFF70CFF0090402F59
:1031100005D1039B043F5A1EAD185B421D40009B26
:10312000019AEB1813603E3F642E09D0662E02D040
:103130004F2E22D140E0201C10F09CFF041C3BE0ED
:10314000201C10F097FF7C427C4119F039FFE4B25B
:1031500004900591A30006AAD318083B211C2A1C41
:103160001B68042022F074F801235C40A40006AB25
:103170001C19083C043524681EE0A3070CD1154B2C
:1031800022689A4208D179427941201CC9B2009A3A
:103190002B1C21F047FD1AE0201C10F007FF009BBC
:1031A000041C042B08D95A2E06D9002804DA281D3D
:1031B0001A1FFF2129F021FE0098042800D90420BD
:1031C000794279412A1CC9B2231C22F041F807B088
:1031D000F0BDC046802E030070B5061C0D1C141CEB
:1031E000181C642E0CD0662E04D04F2E11D19400E2
:1031F000635127E094000D1910F03CFF286021E096
:10320000D4000D1910F036FF19F0DAFE286069605D
:1032100018E020233343712B0CD10321014009D145
:10322000094B02689A4205D1E4002B19082221F0CB
:10323000F9FC07E010F0BAFE291C031C221C301C0C
:1032400022F019F870BDC046802E0300F0B5067854
:1032500087B0B30702D5002A00D0F2E0F307DB0FF6
:10326000DBB20293002B0ED0774B0B40062B0AD01B
:1032700003230B4003D1754C0D68A54202D0012AEF
:1032800001D0DEE0029301920D1C041C730749D5A6
:1032900003688768DE08F600BE19B74211D23868A5
:1032A000A84204D1019B022B00D0A1E09EE0029B2A
:1032B000002B04D1291C10F027FE0028F2D108377A
:1032C000EBE7019B012B00D0BBE02368D9086368C2
:1032D000994210D104316160A068C90025F049FD10
:1032E00023686268DB08D21ADB00A060D200C01835
:1032F000002129F082FD07222068C308591CC9005B
:1033000002400A432260A268DB004F49D3181D60C7
:10331000181C0D40062D00D194E0012122788A432B
:1033200022708FE04368002B05D1019B012B00D058
:1033300087E000F08DF8444B2B400493062B04D11A
:10334000E80827F0F8F8039005E00220291C0AF0AD
:1033500003FE431003930398616816F065FF00268F
:1033600000910591009BDF00A368DF1938680028F1
:103370001AD1019B311C012B63D12068C308013392
:10338000DA000723034013432360002E00D1391CC9
:1033900000234B60049B0D60081C062B52D00122B9
:1033A0002378934323704DE0042803D1002E21D1CC
:1033B0003E1C1FE0A84203D1019B022B18D108E05C
:1033C000029B002B16D1291C10F09EFD002811D065
:1033D000F2E723686168083B23600098013016F02B
:1033E00023FFA368C900CB58002B00D004233B6007
:1033F000381C27E000986168013016F015FF059A27
:1034000000919142AED1019B012B1AD1002E0ED01A
:1034100023680833236000237360049B3560062B08
:1034200003D02378019A93432370301C0AE0201CB8
:1034300000F00EF80398616816F0F6FE0091059111
:1034400090E7002007B0F0BD070080FF8C0103006B
:10345000F7B54368041C0193591C0023174A9A5876
:103460008A4205D204335C2BF8D101250D4300E0DC
:10347000151CE800A76825F078FC07232268656022
:10348000134001223D1C0026236013432370A060DB
:10349000019B9E420DD02968002907D0042905D040
:1034A000201C0122FFF7D2FE6B684360013608350D
:1034B000EEE7381C25F06EFCF7BDC046ECE80200D4
:1034C0000022F8B50768051C8668781C114BD35894
:1034D000834205D204325C2AF8D10123184300E06C
:1034E000181C002428606C60800025F03EFCA86059
:1034F000BC420BD0A300F158002905D0042903D009
:10350000281C012221F03BFF0134F1E7301C25F09B
:1035100041FCF8BDECE8020008B50368186B002810
:103520000ED0CB0702D50368002B09D08B0702D53C
:103530004368002B04D04B0708D58368002B05D1C6
:103540000349044826F0D2FD12F04DFD08BDC046E7
:10355000285003001C230300F0B5012189B001901D
:10356000FFF7DAFF8021061C490004A825F01DF9A9
:1035700080240023069D6400009303AB0198291C5E
:10358000221C3768B847431C0ED103990B2904D17C
:10359000009B1848002B21D12AE001234900194340
:1035A000154826F09CFD14E0002817D0009B1B183E
:1035B0000093A04202D2241A2D18DEE7802104A82D
:1035C000490025F041F9051E05D10B480B490FF0C4
:1035D000E1F812F008FD80246400CEE7009B084863
:1035E0000593337BDB0700D4064804A903F076FA81
:1035F00009B0F0BDF0F602001C23030047500300A1
:103600008C01030060F40200F0B589B00091041C45
:1036100008680121FFF780FF071C012C04D1009BE3
:103620001868FFF799FF98E0009B586810F0BEFCFF
:10363000051C431CF3D001243B7B23426DD0041CAA
:10364000291C04A825F0B1F800230193002C62D0B6
:10365000211C04A825F011F9011E04D1404941485C
:103660000FF098F81FE0009B3E681868221C03AB1F
:10367000B047031C061C013317D1211C04A825F0F8
:1036800069F903990B2908D1059B0093002B42D1BE
:1036900004A825F0B4F834485FE001234900194339
:1036A000324826F01CFD12F09EFCA04202D306997F
:1036B000059C14E0211A04A825F04CF9002EF6D13F
:1036C00029E0101C1E3398431D3BC0280ED1019ADF
:1036D0009B18A3421BD8013DA34216D20193019B24
:1036E000CA5C012350B20028F1DAEAE7101C0D335E
:1036F00098430C3BE028EAD004339A43131CF03B78
:103700005A425A4105239B1AE1E72C1C9DE7013BD5
:103710005B191C1B9AE716481CE0291C04A825F01D
:103720005BF8009B2A1C1868069903AB3D68A84704
:10373000431C09D104A825F062F803990A480B2913
:103740000BD049002143ABE73B7B0590084823425F
:1037500000D1084804A903F0C1F909B0F0BDC04682
:1037600055500300EC210300F0F602001C23030077
:103770008C01030060F402007FB50C1C061C086875
:103780000121FFF7C9FE0222051C01A9606810F0A3
:10379000CDFD029A022E07D9A06810F007FC029B0B
:1037A000021E9A4200D91A1C6B462D6820680199A6
:1037B000A847431C0BD1009907480B290AD00123C5
:1037C00049001943054826F08AFC12F00CFC01233D
:1037D0004000184304B070BDF0F602001C23030043
:1037E000F0B589B00191041C08680121FFF794FE2F
:1037F000061C04A8012C08D9019B5B685C10631CA3
:1038000003D0211C24F0D1FF13E00124102124F067
:10381000CCFF64420DE0019B391C1868012203AB08
:103820003568A847431C11D0002823D03B780A2BC9
:103830002AD0631C23D104A8012125F01EF8071EFD
:10384000E9D1164916480EF0A5FF11E003990B299E
:1038500008D1059B0193012B0CD104A824F0CFFFC4
:10386000104819E00123490019430F4826F037FC9E
:1038700012F0B9FB04A8012125F06CF804E0631EE6
:10388000002C01D01C1CD6E7337B0848DB0700D492
:10389000074804A903F022F909B0F0BD5550030010
:1038A000EC210300F0F602001C2303008C0103004E
:1038B00060F40200F7B50F1C0221041C161CFFF770
:1038C0002BFE01AB4568391C201C321CA847431C49
:1038D0000BD1019907480B290AD00123490019434C
:1038E000054826F0FCFB12F07EFB01234000184344
:1038F000FEBDC046F0F602001C23030070B5061C96
:103900000D1C002811DD002906DD154816F096FC77
:103910000124864213DC11E0C020311C000616F0A1
:103920008DFC012485420ADB08E0002909DDC02066
:10393000000616F083FC0124864200DB0024E4B27A
:103940000BE00024A04208D00548311C16F076FC9C
:103950000123854200DB231CDCB2201C70BDC04665
:10396000FFFFFF3FF0B50E1C496885B0041C151C15
:10397000002901D0002A04D1201C311C21F0E5FED1
:1039800058E00F3213095918009321F04EFE0F2210
:10399000A368B16870682A4000D11032009D264F9C
:1039A0002D18EF197F00DB190393234B0190C318E7
:1039B0005B00CB189C46039B0293002301991027C0
:1039C000002913D061460988BF1A0B43191CF9401E
:1039D0000F1C02991B040F80019901390191029972
:1039E00002390291022149428C44E7E7BF1AFB40A9
:1039F00003994000081A104903808C46009B0199E6
:103A00005F00C71B023763445A00381C29F0F5F9E0
:103A1000002D06D06B00023BFB5A002B01D1013D6B
:103A2000F6E70121656033780B401A1C23788B433D
:103A30001343237005B0F0BDFFFFFF7FF0B54B6867
:103A4000151C526887B0061C0C1C934201D22C1C1A
:103A50000D1C0123227861681A4201D12A78134093
:103A60005918301C21F0E1FDB36829789C46A36801
:103A70000F1C0193636820780093AB684740029362
:103A80006B68059301231A1C1F408B430493009B12
:103A90008243591E6346101C03934B1C27D0019B85
:103AA0001F4A1B889B181818009A059B9B1A5B18C5
:103AB0008B4207D8029B1A4A1B889B18029A023233
:103AC000029200E0164B049A0139D3181A1C4240A6
:103AD00092B2D719039A1B0C0493131C023303935D
:103AE000019B17800233000C3F0C0193D5E7009B2C
:103AF00059006144002F02D001230B80023160463F
:103B000021F07EFD0121706022782B7853400B401C
:103B10001A1C33788B431343337007B0F0BDC04693
:103B2000FFFF0000F0B55C6891B0002C02D144604A
:103B30004C6049E1051C0B9353680E1C591C0692FE
:103B4000019321F072FD069B00215B68A8685A1C56
:103B50005200019329F051F900236B60069B301C41
:103B60005B68591C019321F060FD301C069921F01F
:103B7000ECFDB368776802930B9B9B6803930B9BE8
:103B80005B680593AB680893059B9F420ED310D8E2
:103B90000298391C039A21F08EFD002804D10123DC
:103BA000089A7060138002E0002802DA00236B603C
:103BB000FFE00021059B854A9A18039B52009B1841
:103BC00004931B88019119B2002905DB01995B0060
:103BD00001319BB289B2F5E7931C0C930C9A039BBD
:103BE0009B1800229C46039B63450BD219880198C1
:103BF0000C1C844022431A801022121A11410233F5
:103C00008AB2F1E700227C00029BA01C1A531B1809
:103C100001370993029B77600792099A93420FD26A
:103C20001988019A081C9040021C07981043102222
:103C3000188001980233121A11418AB20792ECE7F8
:103C4000049B1B880F93029B1C19059BFF1A5F4B5B
:103C50006F60FF18089B7F00DB1909937368059A52
:103C60000A93934260D9A31E20880E931B880004F8
:103C700018430F9916F052FA0C9B0022E31A191CF4
:103C8000039F07900D93A1421AD207983B884343A4
:103C900008888446834202D2C01A90420AD86046FD
:103CA0001B1A9A1853420B80130C92B2501E824179
:103CB000D21802E0821A0A80002202310237E2E7BB
:103CC00023889A4208D3D31A5A42190C9BB22280F5
:103CD0005A1E93415A180BE09A1A2280002207E0DC
:103CE0002388C018079B2080013B000C121A079301
:103CF000002A0ED00020039F0D99A142F0D20B881C
:103D00009C463B880237634418180880000C023137
:103D1000F3E76A46099B928B023B5A8009930A9B00
:103D20000E9C013B736099E70023049A03998A4231
:103D30000FD3049A01981288111C01410B43049976
:103D40000B8010231B1A9A4093B2049A023A0492F1
:103D5000EBE71E4A0A9B9446029A63445B00D31821
:103D6000002202998B4214D31988019C081C20411F
:103D700002431A801022121B9140023B8AB2F0E7E4
:103D8000124A08999A185200525A002A0ED1013B41
:103D90006B606B68002BF3D108E00C4A02999A180B
:103DA0005200525A002A04D1013B73607368002B01
:103DB000F3D101210B9B1A78069B1B785A400A42CB
:103DC00002D02B780B432B7011B0F0BDFFFFFF7FAB
:103DD000436830B55A0000238468A218944207D281
:103DE000084D023AAB420AD815881B042B43F5E76D
:103DF0000278D20700D55B420B60012000E0002072
:103E000030BDC046FF7F0000F8B58D1E00241E2D7A
:103E100016D81F1C40680B4B0001595C151C16F08E
:103E20007DF9061CA74204D00130032116F076F973
:103E3000041C281E01D029F0E5F803363419241893
:103E4000201CF8BD63500300F7B5002805D13A499E
:103E50003A4A3B4824F00DFF6BE00D68281C0FF038
:103E6000BBFF4368061CEF2B04D16D68281C0FF0C4
:103E7000B3FF061C00233349DA005058854203D1B2
:103E80008A182F4851680AE00133612BF3D12C4C7A
:103E90002D4B201C9D4201D09E4203D12B4924F082
:103EA0001CFE46E02A4924F0E4FE281C00210FF005
:103EB000C7FF201C2749726824F0DBFE264B9E4278
:103EC00003D1281C25F0B0FC0CE0244B9E4200D00E
:103ED000351CA86B00282CD083072AD1204B026800
:103EE0009A4226D124F0ACFA0025061EAE4220D01C
:103EF00073689D421DD2B268EB00D3181F68002F73
:103F000015D05B681749201C019324F0B2FE381CC1
:103F100000210FF095FF1449201C24F0AAFE0198FF
:103F200000210FF08DFF201C104924F0A2FE013566
:103F3000DEE70F48FEBDC046EE810300845003005B
:103F40006815030084E9020008280300FB540300FD
:103F5000175503001F55030050180300E0FF02002F
:103F60008C0303001EB003002F550300D5990300F6
:103F7000F0F60200F0B5051C8BB008680C1C03F0CD
:103F800085FA049004A822F026F90027049B0390E8
:103F90000693069B1978002912D0081C08F04CFCE7
:103FA0000126002807D006A822F027F9069B1B78D7
:103FB000732B00D0061C069BBF1901330693E8E75C
:103FC000381C11F0F7FB0122009007A9606810F07F
:103FD000ADF9079B089A05939B1801920293022D55
:103FE0000AD9A0680FF0E2FF002802DA089BC01887
:103FF00026D4059B1818059000240DE0291C02F01A
:10400000BBFD059B009A5D19A31C9B00059501341F
:104010009850049B01330493BC4230D2049B18781F
:1040200000282CD008F008FC0125002803D004A8A3
:1040300022F0E3F8051C0598029A43199A4205D22A
:104040001049114826F052F811F0CDFF049B1B785F
:10405000732BD3D0009BA6009E190195019B0436BB
:10406000002B0AD0049B0398197805AAFEF7DCFF01
:10407000019B7060013B0193F0E76419C9E7009868
:104080000BB0F0BDD77603006C210300F0B589B00A
:10409000039101921E1C03F0F9F9049004A822F088
:1040A0009AF800250290B5424ED2049B1878002859
:1040B0004AD008F0C1FB0124002803D004A822F054
:1040C0009CF8041C039B019A1B199A4205D21F49B4
:1040D0001F4826F00BF811F086FF049B1B78732B0A
:1040E00004D02D190E9BAF00DF191CE00E9B6F1C36
:1040F000AD00E85805A9012210F018F9069B251E0D
:104100009D4200D91D1C2A1C0599039828F058FED1
:10411000039B621B5819002128F06FFE039B3D1C76
:104120001C1903940CE0002C0AD0049B0298197807
:10413000A3005B42FA5803ABFEF7DEFF013CF2E757
:10414000049B01330493AEE709B0F0BDD7760300BA
:104150006C210300F0B50E1C89B0039001CE0F1C3A
:1041600022F061F84410211C04A824F035FB069DC0
:10417000221C281C002128F040FE039B00962A19CF
:10418000013B3868291CFFF781FF04A9024802F0AF
:10419000A5FC09B0F0BDC04660F4020030B50C1CAF
:1041A00089B0051C0222486805A910F0BFF8A06874
:1041B0000FF0FCFE002809DA069B0393C01805D512
:1041C00009490A4825F092FF11F00DFF059B069A58
:1041D0001918201C0C309A180090EB1E2068FFF76D
:1041E00055FF034809B030BDD77603006C210300AA
:1041F000F0F6020008B50B1C4179021C012904D11C
:10420000C06A191C23F0DDFE04E0006B0249D26A8B
:1042100023F013FF08BDC0462C17030008B50B1C84
:104220004179021C012904D1C06A191C23F0E9FE5E
:1042300004E0006B0249D26A23F0FFFE08BDC046CD
:104240001C17030008B50B1C4179021C012904D17D
:10425000C06A191C23F0D5FE04E0006B0249D26A43
:1042600023F0EBFE08BDC0463C17030008B53F2213
:10427000014B22F096F808BDB36D020008B59122FB
:10428000014B22F08EF808BD29540000F7B5041C3C
:10429000C579868A0F1CC18A00200191E071A08235
:1042A000E082111C201C1A1C0F4B22F07AF8A36824
:1042B000002B18D1E18A002908D0A38A002B05D150
:1042C000206B25F040F9206B24F0CFFFA38AE28A0F
:1042D000201C391C22F015F86B1E9D416B469B88F3
:1042E000E571A682E382F7BD2D50000038B58368E2
:1042F000002B0BD1041C0D1C0548111C25F0F6FEEB
:10430000A060201C291C0C3022F0B0F838BDC0463B
:10431000D4260300F0B58DB06B4601921B79041CC6
:1043200043710123E16203610B780D1C012B02D064
:1043300000219B4A46E0019B012B07D9836B019921
:104340001E68231C406B2A1C0833B047AB68181C3E
:10435000049320F0AAFA63790490032B0FD10990FB
:104360000C2109A820F0BAFAA36B021C9B68606BB1
:1043700009999847A3686883002B00D009E1049845
:1043800020F093FA04900378011C002B23D00A3B01
:104390000F2B1CD809A921F088FF099B772B14D07B
:1043A00004D803220292312B17D008E0812B04D0CD
:1043B00002220292992B10D001E001230CE0201C74
:1043C0000499784AFFF792FFE8E0002304E0201CFC
:1043D000754AFFF78BFF02230293049820F065FAD9
:1043E0005A21049004A820F079FA049D0390039BBD
:1043F0009D4200D1C2E004952B78432B00D1B8E058
:10440000392B03D0201C0499684ADBE7281C05A936
:1044100020F055FA0378061C912BF3D120F045FAD1
:10442000059B9842EED1301C05A920F048FA03788C
:10443000071C0A3B0F2BE5D820F037FA059B061E18
:104440009E42DFD00378A02BDCD120F02EFA059B12
:104450009842D7D106A9381C21F027FF301C20F044
:1044600029FA9C21079007A820F038FA011C079828
:1044700020F00FFA069B061C2E2B1FD1012804D119
:10448000079803780A3B0F2B03D9201C0499484A4C
:1044900098E72669731C2361019B012B66D909A942
:1044A00021F003FFA36B606BDB68311C099A98470E
:1044B00000285BD1201C04993E4A83E72F2B15D19D
:1044C000012803D107980378032B03D0201C0499FB
:1044D000394A77E7019B012B48D9A36B676B1E69AB
:1044E00020F0C3F9011C381CB0473FE0302B27D126
:1044F000012803D907980378032B03D0201C0499C3
:104500002E4A5FE7019B012B30D908A920F09EF9C4
:104510000127079007980378032B03D0201C0499E8
:10452000274A4FE709A920F091F9A36B07905B692F
:10453000606B0899099A01379847B742EAD115E0AC
:10454000019B012B12D9032800D95BE7079B181C9C
:10455000099320F0AAF90A9020F0A7F9A36B0B9019
:104560009F69606B0699321C09ABB847A368002BA2
:104570000FD1281C20F099F9051C38E76379012B2D
:1045800004D9A36B606B5B6802999847A368002B02
:1045900004D0201C04990C3021F068FF0DB0F0BD50
:1045A000F376030017770300247703004C770300AA
:1045B0006F7703008B7703009B770300B7770300C7
:1045C000DC77030008B5024AFFF790FE08BDC0463D
:1045D000FE77030030B50B7885B04C1C002B7AD0E9
:1045E0000C1C051C032B09D1081C03A920F02EF973
:1045F0000399041C286B24F0D1FD6CE0012B07D13A
:1046000049780234052966D0006B0CF0DFFA62E0CD
:10461000042B07D18978637809021943006B24F0D1
:1046200003FE16E0052B19D14379042B02D0006B51
:104630002A490CE088784B780002184303A925F03A
:1046400089FF03992D6B02F097FA011C281C24F0B6
:10465000F7FD201C20F029F9041C3CE01A1C0A3A42
:10466000081C0F2A08D803A921F01FFE0399041C77
:10467000281CFFF7BFFD2EE0082B0BD103A920F06B
:10468000DBF8039B2A6A9B00041C9958286B24F0D2
:10469000D7FD20E002AA03AB01A920F037F9041CE2
:1046A0000299286B0CF048FA019B0D4A9B009B581D
:1046B000281C211C002B03D10A4AFFF717FE09E032
:1046C000039A9847AB68002B04D0EB68002B01D10C
:1046D000029BEB60039C201C05B030BDF0F602008D
:1046E00014ED02001B780300F0B587B005930B1C96
:1046F000141C5A1E93410091DBB2061C0599201C24
:104700000193002520F0C5F8019B0290AB4209D02F
:10471000009B1B78842B05D1291C306B029A24F056
:1047200090FF009D271C029B013B0493019B039378
:10473000059B9F421CD03B78842B0ED1002D06D1C7
:10474000306B0399049A24F07CFF3D1C05E0301C7B
:10475000391C214AFFF7CAFD3BE0381C20F0A5F8C0
:10476000039B071C01330393049B013B0493DFE786
:10477000002D07D1019A029B94466344191C306BAB
:1047800024F053FF019B002B1CD0009BAB4205D1B2
:10479000281C20F08FF8011C301C01E0301C00990F
:1047A000002200F01BF80DE0AC420FD1201C20F0DD
:1047B00081F8011C301C002200F010F8201C20F0B1
:1047C00074F8041C059B9C42EED102E0301C211CB5
:1047D000F1E707B0F0BDC04633780300F0B50B78C1
:1047E000171C1A1C0A3A85B0041C0D1C0F2A0FD87E
:1047F000081C03A921F059FD201C0399002F01D0AA
:10480000022F02D1FFF70AFDE1E0FFF7F3FCDEE043
:10481000192B01D86F4AD8E01A3B7C2B00D183E0DA
:1048200004D8252B76D0772B06D0CBE07E2B00D179
:1048300088E0912B6ED0C5E0081C02A920F03FF85B
:10484000061C022F03D0201C311CFFF7C3FE301CB6
:1048500020F02BF80299061C21F01FFD002800D043
:10486000B0E03378922B14D1301C03A920F027F844
:10487000061C301C20F019F8039A0190904208D2CF
:10488000022F01D1019EF4E7201C311CFFF7A2FE8C
:10489000F8E73378A12B19D1022F04D1206B24F033
:1048A00069FD206B0FE0301C20F004F8011C201C77
:1048B000FFF790FE206B012F05D124F02FFD206B18
:1048C00024F0FFFC1DE024F014FD1AE0A22B79D1A6
:1048D000301C1FF0EFFF03A921F0E7FC012F07D1E7
:1048E000206B24F011FD206B039924F0C8FC08E034
:1048F000022F02D1206B24F026FD206B039924F0B7
:10490000EBFC301C1FF0D1FF029921F0C6FC0028FF
:104910005DD157E0002F51D103A9281C1FF0CFFF14
:10492000391C021C201C3CE0081C03A91FF0C7FF17
:104930000399061C21F0B1FC002843D1002F3DD182
:10494000351C17E0002F39D1081C03A91FF0B7FF51
:104950000399051C21F0A1FC031E04D0201C391C66
:104960003A1C3B1C27E02A789A2A03D0201C291CD9
:104970001A1C20E003A9281C1FF0A1FF061C1FF031
:1049800094FF03789D2B04D10022201C311C131CA2
:1049900011E09E2B07D103A91FF091FF311C021CCF
:1049A000201C039B07E0BE2B0CD01FF07EFF0021D4
:1049B000031C321C201CFFF797FE08E0201C291C5A
:1049C000054A02E0201C291C044AFFF78FFC05B0B1
:1049D000F0BDC0464D780300807803006578030081
:1049E000F0B50B7891B00A3B041C019105920F2B96
:1049F00000D9ECE0081C1FF058FF0378912B00D081
:104A0000E5E001981FF051FF0DA91FF058FF037852
:104A100042780A3B1B021343AD2B00D0D7E01FF0B6
:104A200044FF0378051CA02B00D0D0E01FF082FFCC
:104A3000002800D0CBE0281C1FF037FF0D9B9842C8
:104A400000D0C4E0281C1FF035FF9C210E900EA85A
:104A50001FF044FF0E9B051C0293012302980F9345
:104A60001FF023FF061E0E90AE4210D01FF01DFF58
:104A70000E90A8420ED00378032B00D0A7E00FA918
:104A80001FF0E4FE0E90A84200D0A0E002E07A4BB6
:104A9000029E0293029B1B784833DBB2022B00D8A4
:104AA00095E033784833DBB2022B00D88FE00D9BC2
:104AB000181C04931FF0F9FE059A2769831A5A1EE1
:104AC0009341021C5B421A400F9B03920593238B78
:104AD00027830993638B0A93E38B0B937B1C0693C9
:104AE000BB1C07936B461B8B6383A38BE383FB1C6D
:104AF00008933B1D23613578033D6B1E9D41EDB24C
:104B0000002D03D0201C311CFFF764FD0299201CEE
:104B1000FFF760FD206B089924F041FC0799206B9A
:104B200024F008FB206B24F0EFFB0022201C0199ED
:104B3000FFF754FE0499201CFFF74CFD206B0699EB
:104B400024F0F8FA206B059924F028FB206B122141
:104B500024F0D6FC206B089924F0ECFA206B002D91
:104B600005D024F0DBFB206B24F0EDFB05E024F006
:104B7000CBFB201C311CFFF72DFD059B206B192161
:104B8000002B00DA1A2124F0BBFC206B0121079ACC
:104B900024F011FC6B469B8C23836B461B8D638337
:104BA0006B469B8DE383039B002B03D0201C191CB9
:104BB000FFF710FD206B391C24F0BCFA206B24F0A9
:104BC000B7FB002D56D0206B24F0B2FB52E0238BB4
:104BD00025690393638B6E1C0493E38B66830693B2
:104BE000AB1C0293A38B0198E383244B2B432383B9
:104BF000EB1C23611FF059FE011C201CFFF7EAFC8F
:104C0000071C206B24F028FC206B311C24F092FA46
:104C1000206B029924F02AFC201C01990022FFF746
:104C2000DDFD391C201CFFF7D5FC071C206B24F090
:104C300078FA002803D1206B311C24F0B0FB206BE4
:104C4000029924F077FA206B24F01CFC6B469B89B8
:104C500023836B461B8A63836B461B8BE383059B15
:104C60009F4203D0201C391CFFF7B4FC206B291C89
:104C700024F060FA11B0F0BD774903000080FFFF17
:104C8000F0B5171C85B0041C081C0D1C1FF00DFE90
:104C9000391C061C21F001FB019000281CD023794F
:104CA000201C002B11D0E36A1E78002E0DD1132199
:104CB000FFF7A0FA291C201CFFF78CFC206B0121B8
:104CC000321C331C24F0FCFC02E0291CFFF782FCA0
:104CD000206B24F02DFB58E033783B2B1BD1291C93
:104CE000201C0122FFF77AFD301C1FF0E3FD437802
:104CF000811C4E3BDBB218260A2B01D8244AD65C15
:104D0000201CFFF767FC206B311C24F0F9FB201CF2
:104D1000291C022237E03C2B2ED1301C03A91FF0A6
:104D2000CEFD061C071C039B9F4205D0381C1FF0BC
:104D3000BCFD0197071CF6E70199201CFFF74AFC10
:104D4000206B24F0E1FA201C291C0022FFF746FD0D
:104D5000019B9E4219D0301C1FF0A7FD019B051E30
:104D60009D4202D0206B24F0CFFA311C201C00227F
:104D7000FFF734FD2E1CEBE7311C201CFFF72AFC4B
:104D8000201C291C019AFFF729FD05B0F0BDC04683
:104D9000E8760300F0B589B0041C0D1C059104925F
:104DA0001F1C002924D18379002B27D0C36A0291CC
:104DB0001B78012B23D10521FFF71CFAE26A108D25
:104DC000854211DAD16AEB00CB1801215E780E42E0
:104DD00008D05A88206B24F024F90022206B02218D
:104DE000131C97E00135EBE7201C00214B4A22E021
:104DF00005A89C211FF072FD029000E002930023A1
:104E00001E1C059D00930393019308E0281C1E437C
:104E10001FF050FD0390281C1FF047FD051C029B4E
:104E20009D4254D02B78B82B08D1B73B1E42EDD011
:104E3000201C291C3A4AFFF759FA6DE0B92B0CD116
:104E4000B73B1E4203D0201C291C364AF3E7281C1E
:104E50001E431FF02FFD0090DDE7BA2B2BD1281C3D
:104E60001FF028FD051C1FF020FD0378BE2B09D183
:104E7000201C291C062221F036FB281C01371FF0BC
:104E800014FDC9E72B780A3B0F2B03D9201C291CE2
:104E9000254AD0E7281C07A921F007FA051C079925
:104EA000206B24F0C1F9291C201CFFF793FB019B08
:104EB000051C0133A8E7019B201C291C002B01D0F5
:104EC0001A4AB8E7FFF786FB0137051CA7E7002E53
:104ED00015D0039B002B03D1206B24F0C6F903E00F
:104EE000201C0399FFF776FB009B002B03D1206B5E
:104EF00024F0BBF903E0201C0099FFF76BFB049B37
:104F0000206B391C019A002B03D0331C24F0E2FBE8
:104F100002E0331C24F0D4FB09B0F0BDAC780300F0
:104F2000CA780300E1780300F97803001A790300D6
:104F3000F0B589B0041C039103A807211FF0CEFC33
:104F40000027E36A01905E7E0398019B98424AD055
:104F500005A91FF0B4FC4021039003A81FF0BEFC7C
:104F600006A9051C039821F0A0F9069B02902A2BA4
:104F700019D1A8420DD202981FF097FCA84208D17F
:104F8000029807A921F091F9079B2B2B07D02D2B15
:104F900007D0201C0021244AFFF7A8F920E00126B1
:104FA0001EE004261CE0201C0399FFF713FB0137C9
:104FB00003900398A84208D007A921F076F9079931
:104FC0000390206B24F05BF9F3E7281C059921F08E
:104FD00064F9002804D1A071291C201CFFF7FAFAFB
:104FE000059B0393B0E7181C1FF064FC019B039022
:104FF0001B78011C321C201C242B02D121F00AFA40
:1050000001E021F086FC051C013F06D30022206B45
:105010000121131C24F054FBF6E7201C291CFFF788
:10502000FDF809B0F0BDC0463C790300F7B50A7839
:105030000824131C293BA343DBB2002B02D101330C
:10504000C37168E0131C2A3BA343DBB2002B62D080
:10505000131C0A3B0E1C041C0F2B1DD9081C282AEC
:1050600013D101A91FF02BFC071C1FF01EFC019B94
:105070000025984212D01FF018FC019B051CC31A92
:105080005A1E93415B421D4008E01FF013FC071CB1
:105090001FF00BFC051C01E00F1C0025381C01A9AA
:1050A00021F003F9E379002D02D02A78002A0AD1F1
:1050B000002B30D1E38A002B2DD0201C311C164A46
:1050C000FFF714F927E0002B1ED0A38A01339BB20F
:1050D000A382012B0CD1E18A206B002902D024F09D
:1050E00032FA01E024F0C1F8206B002124F052FADA
:1050F000291C201CFFF76EFA206B019924F094F80C
:10510000206B24F053FA06E0E38A201C0133E3828B
:10511000291CFFF75FFAF7BD5A790300F0B5041CAC
:105120000E1C056987B003936B1C0293AB1C0361D3
:10513000291C006B171C24F06CF9201C21F0BDF811
:10514000311C201CFFF746FA206B24F0A1F9206BDC
:10515000029924F024F9206B291C23F0EBFF206B2B
:1051600024F0FDFA2669731C2361039B9F4200D142
:1051700091E0381C1FF09EFB002305932369051C5A
:105180000193013323610378002B0FD11FF08DFBB6
:105190001FF08BFB039B984223D0201C291C4B4AF9
:1051A000FFF7A4F8A38B013BA3838CE0071C6A2BB9
:1051B00007D11FF07FFB071C1FF077FB05A921F02B
:1051C00074F8206B24F0A0F8391C201CFFF702FAB9
:1051D000206B212124F094F9206B0021019A24F006
:1051E000EAF8281C1FF061FB071C206B24F0A0F8D4
:1051F0000599002903D1206B24F09AF802E0201CC5
:10520000FFF70CF80025206B24F092F8059BAB42C9
:1052100009D02569206B6B1C2361291C24F005F93A
:10522000201C21F04AF8391C201CFFF7D3F9059BFC
:10523000071C002B02D0206B24F02AF9206B24F0ED
:1052400048F9059B002B19D0206B0F210BF0BEFCF9
:10525000206B291C23F06EFF206B0F210BF0B6FC96
:10526000201C0599FEF7DAFF201C0599FEF7EAFFDE
:10527000A38B206B013BA38324F0E3F8206B311C4C
:1052800024F08DF8206B019923F054FF206B03214B
:1052900023F04CFF69E7A38B206B013BA38324F031
:1052A000D0F8206B24F05FFA206B029923F042FFC4
:1052B0000C9B002B03D0201C191CFFF78BF9206BD3
:1052C000311C23F037FF07B0F0BDC04688790300DA
:1052D000F0B587B003914379012B42D1C36A041C16
:1052E0001B78002B03D1204AFFF700F839E0039B1D
:1052F00003A8432101931FF0F1FA02900398029B47
:1053000098422ED005A90B2720F0CFFF02AB059DB8
:10531000FF180390291CE06A3A1C23F03CF93B7803
:10532000061C002B06D10378042B03D0201C019906
:105330000E4A0CE0E06A291C23F05AF9002803D039
:105340000378023B022B05D9201C0199084AFEF77D
:10535000CDFFD3E704233370E06A291C23F05AF908
:10536000CCE707B0F0BDC046A7790300CC790300B5
:10537000ED790300F0B585B001914379012B2BD174
:105380000091041C432101A81FF0A8FA071C0198F2
:10539000B84221D003A90B2520F087FF039E6D445E
:1053A0000190311CE06A2A1C23F0F5F82B78002BC1
:1053B00008D10378012B05D0201C0099074AFEF77D
:1053C00095FFE4E701250570E06A311C23F007F939
:1053D0000028DCD00570DAE705B0F0BD0B7A0300D9
:1053E00010B5438B041C002B02D1054AFEF77EFF4B
:1053F000A38BE28B618B9A1A206B0BF00DFC10BD16
:105400002A7A030010B5038B041C002B02D1054A35
:10541000FEF76CFFA38BE28B218B9A1A206B0BF0AB
:10542000FBFB10BD427A0300F7B50B78041C1A1C75
:105430000A3A0E1C0F2A08D8081C01A920F035FFD3
:10544000201C0199FEF7FEFE76E0912B3FD1081C4F
:1054500069461FF034FA011C201CFFF7BBF80378E3
:10546000051C922B10D101A91FF029FA051C281C3C
:105470001FF01BFA019B071E9F4205D0291C201C10
:10548000FFF7A8F83D1CF2E72B78A12B0BD1281CC5
:105490001FF010FA011C201CFFF79CF8051C206B64
:1054A00023F072FF0CE0A22B41D1281C1FF002FA5E
:1054B00001A920F0FAFE0199051C206B23F04DFF95
:1054C000281C009920F0E9FE002830D034E0962B0B
:1054D0002DD1081C1FF02EFA002828D1301C1FF0F7
:1054E000E9F9061C1FF0E6F9051C201C291CFFF732
:1054F0009BFF281C1FF0D9F90378011C9D2B1BD0A2
:105500009E2B0ED101A91FF0DAF9019B051E9D42C9
:1055100012D0201C291CFFF787FF281C1FF0C5F99B
:10552000F3E7BE2B03D0201CFFF77EFF04E0201C16
:10553000311C024AFEF7DAFEF7BDC046577A030077
:10554000F7B502260D1CC16A041C097E314003D048
:10555000201C291C334A5EE001912978081C0A3876
:105560000F2801D8281C05E01A32914212D1281CBC
:105570001FF0A0F901A920F098FEE279E36A002A61
:1055800004D15A8B01325A83012635E09A8B0132BD
:105590009A83F9E71A33994223D1E379002BD7D1C3
:1055A0000127281CE7711FF0C5F90326002823D125
:1055B000281C1FF07FF90278E36A0A3A0F2A04D800
:1055C0001A7E281C17431F7605E01A7E281C1743F5
:1055D0001F761FF06FF91FF06DF901A920F065FE2D
:1055E0000AE0281C1FF066F901A920F05EFEE26ABD
:1055F000137E1E43167605260199002911D06B46AD
:10560000DF1CE06A3A1C22F0C6FF3B78002B05D174
:10561000201C291C044AFEF769FE02E002234670A2
:105620000370F7BD154A03006F7A030038B5C36AEB
:10563000041C1B780D1C012B04D000210B4AFEF723
:1056400055FE11E0081C111C20F027FE002804D094
:10565000206B0F210BF0BAFA03E0201C291CFEF787
:10566000B9FF206B24F041F838BDC046887A0300AA
:1056700038B5C36A041C1B780D1C013B012B04D9EF
:105680000021164AFEF732FE26E0081C111C20F00D
:1056900004FE002804D0206B0F210BF097FA18E0CD
:1056A0002B78C22B11D1281C1FF004F9011C201CDF
:1056B000FEF790FF206B23F0CFFE206B0F210BF045
:1056C00085FA206B24F03BF806E0201C291CFEF72D
:1056D00081FF206B24F024F838BDC046A27A030075
:1056E000F0B5041C85B00D1C081C111C20F0D5FD64
:1056F000002804D0206B002123F04CFF80E02B78A1
:10570000AF2B0BD1206B012123F044FF201C291C5F
:10571000FEF760FF206B23F049FF71E0AE2B67D1ED
:10572000281C1FF0C7F8051C1FF0BFF80290037873
:10573000B22B53D103A91FF0C2F8039B02909842E9
:1057400003D002A899211FF0C9F82B78AF2B11D1F3
:1057500003990298266B1FF09CF8411C301C23F023
:1057600019FF291C201CFEF735FF206B23F01EFFBC
:10577000012304E0201C291CFEF72CFF0023029FBC
:105780000193039B9F421ED03E78391CAF3E201CE4
:1057900073425E41FEF71EFF019BF6B2071C002B11
:1057A00009D0002E03D1201C291C164A08E0206BCA
:1057B00023F0FCFEE5E7002EE3D0201C291C124A52
:1057C000FEF794FD1CE0019B002B19D1391C0298B7
:1057D000246B1FF05EF8411C201C0FE02B78201C6E
:1057E000291C0422AF2B00D0052220F07CFE07E00C
:1057F000291C201CFEF7EEFE0121206B23F0EEFE9B
:1058000005B0F0BDBB7A0300DE7A0300F0B50123DA
:10581000041C0D1C427187B0E1620361111C006B16
:105820002A1C0BF0C1F86379012B02D100236B8491
:10583000AB84AE6833781E2B07D1301C1FF03AF8CA
:10584000011C201CFEF7C6FEB9E02B78002B04D10A
:10585000201C311CFEF7BEFEA7E0012B1ED1301C20
:105860001FF023F86379051C012B07D10023201CAE
:10587000E371291C0C22564B20F093FD281C1FF0CD
:1058800014F81FF012F8011C201CFEF7A3FE206B79
:1058900023F047FC002800D094E086E0022B18D1CA
:1058A0006379012B07D10023201CE371311C1422E2
:1058B000484B20F076FD301C1EF0F7FF011C201C29
:1058C000FEF788FE2B7E5B0779D5206B23F030FD39
:1058D0006BE0033B032B3AD8301C1EF0E6FF05A912
:1058E0001EF0EDFF1EF0E1FF67790390012F09D153
:1058F0000B2202ABD218E06A391C22F04CFE0223C4
:1059000003706F832B78032B04D1206B002123F0CD
:1059100027FE0CE0042B04D1206B002123F03AFE7B
:1059200005E0052B03D1206B002123F057FE201C3E
:105930000121FEF75FFC0023201C00930399331C18
:10594000059A21F0E4FA2B78062B38D12DE0637903
:10595000012B06D1281C052105AA22F01CFE0223DA
:10596000037005A9A86820F0A0FC201C0D21FEF7FB
:1059700041FC201C0C21FEF751FC206B296923F00F
:1059800053FC1121201CFEF749FCA8681EF08DFF76
:105990001EF08BFF011C201CFEF71CFE281C05219D
:1059A00022F0E9FD0378022B04D1206B0F210BF0CC
:1059B0000DF904E042880521206B23F032FB206BB7
:1059C00023F093FE206B0BF07DF807B0F0BDC046CE
:1059D000376B02002B6B0200F0B51E1C0F1C99B038
:1059E00009AC00210590151C201C3C2227F005FA6B
:1059F000059B09975B6826712362059B18681EF05A
:105A000054FF1EF032FF6062800023F0AEF90021E7
:105A1000059BA06200951B68201C0A1C20F057FC07
:105A200023F069FB00230290206303930026331CBC
:105A3000626A964202D3002BF8D12CE0A268002AB9
:105A4000F9D1A16AB2005558002D16D06A69002A12
:105A500013D121F0B9FF6B7E6861291C201C012243
:105A6000042B02D1FEF756FC01E0FFF7CFFE2369BD
:105A7000039A9A4200D2039301230136D8E70B9A86
:105A8000002A00D0AEE00499139B8900CB58002B6C
:105A900009D1049B01330493129B0693069A049B3D
:105AA0009342ECD39EE0197EC90723D51C8D601E5E
:105AB000C000002C1ED0D96A09184D78AE0711D548
:105AC000002A17D050880F1C84465068167806901C
:105AD000557811CF11C262464A80069A0E704D70F9
